{
  "contractName": "VotingSystem",
  "abi": [
    {
      "inputs": [],
      "stateMutability": "nonpayable",
      "type": "constructor"
    },
    {
      "anonymous": false,
      "inputs": [
        {
          "indexed": false,
          "internalType": "uint256",
          "name": "timestamp",
          "type": "uint256"
        }
      ],
      "name": "ElectionEnded",
      "type": "event"
    },
    {
      "anonymous": false,
      "inputs": [
        {
          "indexed": true,
          "internalType": "address",
          "name": "voter",
          "type": "address"
        },
        {
          "indexed": false,
          "internalType": "uint256",
          "name": "candidateId",
          "type": "uint256"
        }
      ],
      "name": "VoteCast",
      "type": "event"
    },
    {
      "inputs": [],
      "name": "admin",
      "outputs": [
        {
          "internalType": "address",
          "name": "",
          "type": "address"
        }
      ],
      "stateMutability": "view",
      "type": "function",
      "constant": true
    },
    {
      "inputs": [
        {
          "internalType": "uint256",
          "name": "",
          "type": "uint256"
        }
      ],
      "name": "candidates",
      "outputs": [
        {
          "internalType": "uint256",
          "name": "id",
          "type": "uint256"
        },
        {
          "internalType": "string",
          "name": "name",
          "type": "string"
        },
        {
          "internalType": "uint256",
          "name": "voteCount",
          "type": "uint256"
        }
      ],
      "stateMutability": "view",
      "type": "function",
      "constant": true
    },
    {
      "inputs": [],
      "name": "candidatesCount",
      "outputs": [
        {
          "internalType": "uint256",
          "name": "",
          "type": "uint256"
        }
      ],
      "stateMutability": "view",
      "type": "function",
      "constant": true
    },
    {
      "inputs": [],
      "name": "electionEnded",
      "outputs": [
        {
          "internalType": "bool",
          "name": "",
          "type": "bool"
        }
      ],
      "stateMutability": "view",
      "type": "function",
      "constant": true
    },
    {
      "inputs": [
        {
          "internalType": "address",
          "name": "",
          "type": "address"
        }
      ],
      "name": "voters",
      "outputs": [
        {
          "internalType": "bool",
          "name": "hasVoted",
          "type": "bool"
        },
        {
          "internalType": "uint256",
          "name": "vote",
          "type": "uint256"
        }
      ],
      "stateMutability": "view",
      "type": "function",
      "constant": true
    },
    {
      "inputs": [],
      "name": "votersCount",
      "outputs": [
        {
          "internalType": "uint256",
          "name": "",
          "type": "uint256"
        }
      ],
      "stateMutability": "view",
      "type": "function",
      "constant": true
    },
    {
      "inputs": [
        {
          "internalType": "string",
          "name": "_name",
          "type": "string"
        }
      ],
      "name": "addCandidate",
      "outputs": [],
      "stateMutability": "nonpayable",
      "type": "function"
    },
    {
      "inputs": [
        {
          "internalType": "uint256",
          "name": "_candidateId",
          "type": "uint256"
        }
      ],
      "name": "vote",
      "outputs": [],
      "stateMutability": "nonpayable",
      "type": "function"
    },
    {
      "inputs": [],
      "name": "endElection",
      "outputs": [],
      "stateMutability": "nonpayable",
      "type": "function"
    },
    {
      "inputs": [
        {
          "internalType": "uint256",
          "name": "_candidateId",
          "type": "uint256"
        }
      ],
      "name": "getCandidate",
      "outputs": [
        {
          "internalType": "uint256",
          "name": "",
          "type": "uint256"
        },
        {
          "internalType": "string",
          "name": "",
          "type": "string"
        },
        {
          "internalType": "uint256",
          "name": "",
          "type": "uint256"
        }
      ],
      "stateMutability": "view",
      "type": "function",
      "constant": true
    }
  ],
  "bytecode": "0x608060405234801561001057600080fd5b50336000806101000a81548173ffffffffffffffffffffffffffffffffffffffff021916908373ffffffffffffffffffffffffffffffffffffffff160217905550610f65806100606000396000f3fe608060405234801561001057600080fd5b506004361061009e5760003560e01c806359f784681161006657806359f784681461015d57806398c0793814610167578063a3ec138d14610185578063c94ca9e3146101b6578063f851a440146101d45761009e565b80630121b93f146100a35780632d35a8a2146100bf5780633477ee2e146100dd57806335b8e8201461010f578063462e91ec14610141575b600080fd5b6100bd60048036038101906100b891906109f4565b6101f2565b005b6100c761045a565b6040516100d49190610c88565b60405180910390f35b6100f760048036038101906100f291906109f4565b610460565b60405161010693929190610ca3565b60405180910390f35b610129600480360381019061012491906109f4565b610512565b60405161013893929190610ca3565b60405180910390f35b61015b600480360381019061015691906109b3565b6105f5565b005b610165610705565b005b61016f6107e7565b60405161017c9190610c88565b60405180910390f35b61019f600480360381019061019a919061098a565b6107ed565b6040516101ad929190610bdf565b60405180910390f35b6101be61081e565b6040516101cb9190610bc4565b60405180910390f35b6101dc610831565b6040516101e99190610ba9565b60405180910390f35b600560009054906101000a900460ff1615610242576040517f08c379a000000000000000000000000000000000000000000000000000000000815260040161023990610c08565b60405180910390fd5b600260003373ffffffffffffffffffffffffffffffffffffffff1673ffffffffffffffffffffffffffffffffffffffff16815260200190815260200160002060000160009054906101000a900460ff16156102d2576040517f08c379a00000000000000000000000000000000000000000000000000000000081526004016102c990610c68565b60405180910390fd5b6000811180156102e457506003548111155b610323576040517f08c379a000000000000000000000000000000000000000000000000000000000815260040161031a90610c28565b60405180910390fd5b6001600260003373ffffffffffffffffffffffffffffffffffffffff1673ffffffffffffffffffffffffffffffffffffffff16815260200190815260200160002060000160006101000a81548160ff02191690831515021790555080600260003373ffffffffffffffffffffffffffffffffffffffff1673ffffffffffffffffffffffffffffffffffffffff168152602001908152602001600020600101819055506001600082815260200190815260200160002060020160008154809291906103ec90610e1a565b91905055506004600081548092919061040490610e1a565b91905055503373ffffffffffffffffffffffffffffffffffffffff167fa36cc2bebb74db33e9f88110a07ef56e1b31b24b4c4f51b54b1664266e29f45b8260405161044f9190610c88565b60405180910390a250565b60035481565b600160205280600052604060002060009150905080600001549080600101805461048990610de8565b80601f01602080910402602001604051908101604052809291908181526020018280546104b590610de8565b80156105025780601f106104d757610100808354040283529160200191610502565b820191906000526020600020905b8154815290600101906020018083116104e557829003601f168201915b5050505050908060020154905083565b600060606000600160008581526020019081526020016000206000015460016000868152602001908152602001600020600101600160008781526020019081526020016000206002015481805461056890610de8565b80601f016020809104026020016040519081016040528092919081815260200182805461059490610de8565b80156105e15780601f106105b6576101008083540402835291602001916105e1565b820191906000526020600020905b8154815290600101906020018083116105c457829003601f168201915b505050505091509250925092509193909250565b60008054906101000a900473ffffffffffffffffffffffffffffffffffffffff1673ffffffffffffffffffffffffffffffffffffffff163373ffffffffffffffffffffffffffffffffffffffff1614610683576040517f08c379a000000000000000000000000000000000000000000000000000000000815260040161067a90610c48565b60405180910390fd5b6003600081548092919061069690610e1a565b91905055506040518060600160405280600354815260200182815260200160008152506001600060035481526020019081526020016000206000820151816000015560208201518160010190805190602001906106f4929190610855565b506040820151816002015590505050565b60008054906101000a900473ffffffffffffffffffffffffffffffffffffffff1673ffffffffffffffffffffffffffffffffffffffff163373ffffffffffffffffffffffffffffffffffffffff1614610793576040517f08c379a000000000000000000000000000000000000000000000000000000000815260040161078a90610c48565b60405180910390fd5b6001600560006101000a81548160ff0219169083151502179055507f562cd572b2ba3b666cd989fc4ca98419ec81e75f04528df9d9d76fdb7807ee71426040516107dd9190610c88565b60405180910390a1565b60045481565b60026020528060005260406000206000915090508060000160009054906101000a900460ff16908060010154905082565b600560009054906101000a900460ff1681565b60008054906101000a900473ffffffffffffffffffffffffffffffffffffffff1681565b82805461086190610de8565b90600052602060002090601f01602090048101928261088357600085556108ca565b82601f1061089c57805160ff19168380011785556108ca565b828001600101855582156108ca579182015b828111156108c95782518255916020019190600101906108ae565b5b5090506108d791906108db565b5090565b5b808211156108f45760008160009055506001016108dc565b5090565b600061090b61090684610d12565b610ce1565b90508281526020810184848401111561092357600080fd5b61092e848285610da6565b509392505050565b60008135905061094581610f01565b92915050565b600082601f83011261095c57600080fd5b813561096c8482602086016108f8565b91505092915050565b60008135905061098481610f18565b92915050565b60006020828403121561099c57600080fd5b60006109aa84828501610936565b91505092915050565b6000602082840312156109c557600080fd5b600082013567ffffffffffffffff8111156109df57600080fd5b6109eb8482850161094b565b91505092915050565b600060208284031215610a0657600080fd5b6000610a1484828501610975565b91505092915050565b610a2681610d5e565b82525050565b610a3581610d70565b82525050565b6000610a4682610d42565b610a508185610d4d565b9350610a60818560208601610db5565b610a6981610ef0565b840191505092915050565b6000610a81601283610d4d565b91507f456c656374696f6e2068617320656e64656400000000000000000000000000006000830152602082019050919050565b6000610ac1601183610d4d565b91507f496e76616c69642063616e6469646174650000000000000000000000000000006000830152602082019050919050565b6000610b01602283610d4d565b91507f4f6e6c792061646d696e2063616e20706572666f726d2074686973206163746960008301527f6f6e0000000000000000000000000000000000000000000000000000000000006020830152604082019050919050565b6000610b67601683610d4d565b91507f596f75206861766520616c726561647920766f746564000000000000000000006000830152602082019050919050565b610ba381610d9c565b82525050565b6000602082019050610bbe6000830184610a1d565b92915050565b6000602082019050610bd96000830184610a2c565b92915050565b6000604082019050610bf46000830185610a2c565b610c016020830184610b9a565b9392505050565b60006020820190508181036000830152610c2181610a74565b9050919050565b60006020820190508181036000830152610c4181610ab4565b9050919050565b60006020820190508181036000830152610c6181610af4565b9050919050565b60006020820190508181036000830152610c8181610b5a565b9050919050565b6000602082019050610c9d6000830184610b9a565b92915050565b6000606082019050610cb86000830186610b9a565b8181036020830152610cca8185610a3b565b9050610cd96040830184610b9a565b949350505050565b6000604051905081810181811067ffffffffffffffff82111715610d0857610d07610ec1565b5b8060405250919050565b600067ffffffffffffffff821115610d2d57610d2c610ec1565b5b601f19601f8301169050602081019050919050565b600081519050919050565b600082825260208201905092915050565b6000610d6982610d7c565b9050919050565b60008115159050919050565b600073ffffffffffffffffffffffffffffffffffffffff82169050919050565b6000819050919050565b82818337600083830152505050565b60005b83811015610dd3578082015181840152602081019050610db8565b83811115610de2576000848401525b50505050565b60006002820490506001821680610e0057607f821691505b60208210811415610e1457610e13610e92565b5b50919050565b6000610e2582610d9c565b91507fffffffffffffffffffffffffffffffffffffffffffffffffffffffffffffffff821415610e5857610e57610e63565b5b600182019050919050565b7f4e487b7100000000000000000000000000000000000000000000000000000000600052601160045260246000fd5b7f4e487b7100000000000000000000000000000000000000000000000000000000600052602260045260246000fd5b7f4e487b7100000000000000000000000000000000000000000000000000000000600052604160045260246000fd5b6000601f19601f8301169050919050565b610f0a81610d5e565b8114610f1557600080fd5b50565b610f2181610d9c565b8114610f2c57600080fd5b5056fea264697066735822122067596d865227c7bb44c77800120592b7bb5d4a12100b4eaccbf311f1c152a7c064736f6c63430008000033",
  "immutableReferences": {},
  "source": "// SPDX-License-Identifier: MIT\npragma solidity ^0.8.0;\n\ncontract VotingSystem {\n    struct Candidate {\n        uint id;\n        string name;\n        uint voteCount;\n    }\n\n    struct Voter {\n        bool hasVoted;\n        uint vote;\n    }\n\n    address public admin;\n    mapping(uint => Candidate) public candidates;\n    mapping(address => Voter) public voters;\n    uint public candidatesCount;\n    uint public votersCount;\n    bool public electionEnded;\n\n    event VoteCast(address indexed voter, uint candidateId);\n    event ElectionEnded(uint timestamp);\n\n    constructor() {\n        admin = msg.sender;\n    }\n\n    modifier onlyAdmin() {\n        require(msg.sender == admin, \"Only admin can perform this action\");\n        _;\n    }\n\n    function addCandidate(string memory _name) public onlyAdmin {\n        candidatesCount++;\n        candidates[candidatesCount] = Candidate(candidatesCount, _name, 0);\n    }\n\n    function vote(uint _candidateId) public {\n        require(!electionEnded, \"Election has ended\");\n        require(!voters[msg.sender].hasVoted, \"You have already voted\");\n        require(_candidateId > 0 && _candidateId <= candidatesCount, \"Invalid candidate\");\n\n        voters[msg.sender].hasVoted = true;\n        voters[msg.sender].vote = _candidateId;\n        candidates[_candidateId].voteCount++;\n        votersCount++;\n\n        emit VoteCast(msg.sender, _candidateId);\n    }\n\n    function endElection() public onlyAdmin {\n        electionEnded = true;\n        emit ElectionEnded(block.timestamp);\n    }\n\n    function getCandidate(uint _candidateId) public view returns (uint, string memory, uint) {\n        return (\n            candidates[_candidateId].id,\n            candidates[_candidateId].name,\n            candidates[_candidateId].voteCount\n        );\n    }\n}\n\n",
  "sourcePath": "/home/kali/AndroidStudioProjects/evottingsystem_1/app/src/main/java/com/example/e_votting_system_1/VotingDapp/contracts/VotingSystem.sol",
  "compiler": {
    "name": "solc",
    "version": "0.8.0+commit.c7dfd78e.Emscripten.clang"
  },
  "schemaVersion": "3.4.16",
  "updatedAt": "2025-04-20T10:58:19.108Z",
  "networkType": "ethereum",
  "devdoc": {
    "kind": "dev",
    "methods": {},
    "version": 1
  },
  "userdoc": {
    "kind": "user",
    "methods": {},
    "version": 1
  }
}